{
  "address": "0x5433C4117DBBb23fFB22b15655908fa60B312832",
  "abi": [
    {
      "inputs": [],
      "name": "inc1",
      "outputs": [],
      "stateMutability": "nonpayable",
      "type": "function"
    },
    {
      "inputs": [
        {
          "internalType": "uint256",
          "name": "y",
          "type": "uint256"
        }
      ],
      "name": "increase",
      "outputs": [],
      "stateMutability": "nonpayable",
      "type": "function"
    },
    {
      "inputs": [],
      "name": "x",
      "outputs": [
        {
          "internalType": "uint256",
          "name": "",
          "type": "uint256"
        }
      ],
      "stateMutability": "view",
      "type": "function"
    }
  ],
  "transactionHash": "0x5c9ed6582b1136820df418d26cb0c701b8cd1ed664c7d30b7bed0982ca09bc85",
  "args": [],
  "numDeployments": 1,
  "solcInputHash": "4a2cc05412737fab78dec22f824a1810",
  "bytecode": "0x6080806040523460145760ea908161001a8239f35b600080fdfe6080806040526004361015601257600080fd5b60003560e01c9081630c55699c14609b5750806330f3f0db1460795763d0b45cd614603c57600080fd5b3460745760003660031901126074576000546000198114605e57600101600055005b634e487b7160e01b600052601160045260246000fd5b600080fd5b3460745760203660031901126074576000546004358101809111605e57600055005b3460745760003660031901126074576020906000548152f3fea2646970667358221220c59156dd20b995a65e763f941d07ffc77062c46f251660d589229abf3e280d9864736f6c634300081c0033",
  "devdoc": {
    "kind": "dev",
    "methods": {},
    "version": 1
  },
  "userdoc": {
    "kind": "user",
    "methods": {},
    "version": 1
  },
  "storageLayout": {
    "storage": [
      {
        "astId": 3,
        "contract": "contracts/Counter.sol:Counter",
        "label": "x",
        "offset": 0,
        "slot": "0",
        "type": "t_uint256"
      }
    ],
    "types": {
      "t_uint256": {
        "encoding": "inplace",
        "label": "uint256",
        "numberOfBytes": "32"
      }
    }
  }
}